:100000000C9435000C945D000C945D000C945D0024
:100010000C945D000C945D000C945D000C945D00EC
:100020000C945D000C945D000C945D000C945D00DC
:100030000C945D000C945D000C945D000C945D00CC
:100040000C94E6010C945D000C9456020C94300262
:100050000C945D000C945D000C945D000C945D00AC
:100060000C945D000C945D004A0311241FBECFEF79
:10007000D8E0DEBFCDBF11E0A0E0B1E0ECEBF9E0ED
:1000800002C005900D92A832B107D9F721E0A8E28D
:10009000B1E001C01D92AE3FB207E1F710E0C5E349
:1000A000D0E004C02197FE010E94D104C433D107DF
:1000B000C9F70E9483030C94DC040C9400003FB742
:1000C000F89480912D0190912E01A0912F01B09173
:1000D000300126B5A89B05C02F3F19F00196A11D40
:1000E000B11D3FBFBA2FA92F982F8827820F911DCE
:1000F000A11DB11DBC01CD0142E0660F771F881F15
:10010000991F4A95D1F70895CF92DF92EF92FF920F
:100110000F931F93CF93DF936C017A018B01C0E0A3
:10012000D0E0CE15DF0581F0D8016D918D01D601AB
:10013000ED91FC910190F081E02DC6010995892B8C
:1001400011F02196EECF7E01C701DF91CF911F9173
:100150000F91FF90EF90DF90CF900895FC01538DA9
:10016000448D252F30E0842F90E0821B930B541791
:1001700010F0CF96089501970895FC01918D828D1E
:10018000981761F0828DDF01A80FB11D5D968C91EB
:10019000928D9F5F9F73928F90E008958FEF9FEFF6
:1001A0000895FC01918D828D981731F0828DE80FB2
:1001B000F11D858D90E008958FEF9FEF0895FC016C
:1001C000918D228D892F90E0805C9F4F821B910939
:1001D0008F739927089581E391E00E94DF0021E069
:1001E000892B09F420E0822F0895FC01848DDF0122
:1001F000A80FB11DA35ABF4F2C91848D90E001969A
:100200008F739927848FA689B7892C93A089B18988
:100210008C91837080648C93938D848D981306C029
:100220000288F389E02D80818F7D80830895EF928D
:10023000FF920F931F93CF93DF93EC0181E0888FA0
:100240009B8D8C8D981305C0E889F989808185FD87
:1002500026C0F62E0B8D10E00F5F1F4F0F73112776
:10026000E02E8C8DE8120CC00FB607FCFACFE8899F
:10027000F989808185FFF5CFCE010E94F500F1CF8D
:100280008B8DFE01E80FF11DE35AFF4FF0829FB7FF
:10029000F8940B8FEA89FB89808180620AC09FB73E
:1002A000F894EE89FF896083E889F98980818370F9
:1002B000806480839FBF81E090E0DF91CF911F91A8
:1002C0000F91FF90EF900895CF93DF93EC01888D0D
:1002D0008823C9F0EA89FB89808185FD05C0A8894A
:1002E000B9898C9186FD0FC00FB607FCF5CF8081D0
:1002F00085FFF2CFA889B9898C9185FFEDCFCE011A
:100300000E94F500E7CFDF91CF91089580E090E063
:10031000892B29F00E94EB0081110C9400000895B4
:100320000895FC0124A535A5231728F4E20FF11D3B
:10033000848590E008958FEF9FEF0895FC0194A5C8
:1003400085A5981748F4DF01A90FB11D1C962C91C3
:1003500030E09F5F94A702C02FEF3FEFC9010895DF
:10036000FC0125A530E084A5A901481B5109CA015B
:100370000895CF92DF92EF92FF920F931F93CF9346
:10038000DF936C01EB017B01E40EF51E00E010E051
:10039000CE15DF0561F06991D601ED91FC910190D8
:1003A000F081E02DC6010995080F191FF1CFC80192
:1003B000DF91CF911F910F91FF90EF90DF90CF9041
:1003C000089580E090E008950E94D7041F920F9254
:1003D0000FB60F9211242F933F938F939F93AF9358
:1003E000BF938091290190912A01A0912B01B09196
:1003F0002C013091280123E0230F2D3720F40196A2
:10040000A11DB11D05C026E8230F0296A11DB11D37
:10041000209328018093290190932A01A0932B0116
:10042000B0932C0180912D0190912E01A0912F016C
:10043000B09130010196A11DB11D80932D019093C3
:100440002E01A0932F01B0933001BF91AF919F91E6
:100450008F913F912F910F900FBE0F901F90189585
:100460001F920F920FB60F9211242F933F934F9329
:100470005F936F937F938F939F93AF93BF93EF930C
:10048000FF9381E391E00E94F500FF91EF91BF910E
:10049000AF919F918F917F916F915F914F913F911C
:1004A0002F910F900FBE0F901F9018951F920F92D3
:1004B0000FB60F9211242F938F939F93EF93FF9377
:1004C000E0914101F09142018081E0914701F0917A
:1004D000480182FD12C0908180914A018F5F8F7325
:1004E00020914B01821751F0E0914A01F0E0EF5C5E
:1004F000FE4F958F80934A0101C08081FF91EF915B
:100500009F918F912F910F900FBE0F901F90189574
:1005100071E03D9A3C98000000000000B6D03D9884
:10052000B4D0A894000000000000359BA9D0B2F020
:10053000889434990894771F60F73D9A803011F0C1
:100540003C9801C03C9A0000000000009ED03D98FD
:10055000A89400000000359B93D097D000000000C5
:100560003D9A872F9927089580E208950894881F5F
:1005700001C0880FB9F03D9A00000000000018F497
:1005800000003C9802C03C9A00C07FD03D98A894DF
:10059000000000000000359B73D012F4882712C0C1
:1005A00074D0E7CF3D9A000000003C986ED09927A8
:1005B00088273D98A8940000359B62D07AF3349B3D
:1005C00081E063D0000000003D9A089581E0089525
:1005D000CF93DF93EC01862F0E94B602811106C0F3
:1005E0008FA5811106C083E08FA703C081E090E052
:1005F00002C080E090E0DF91CF9108953D9A3C9A4F
:1006000044D03D9842D0359B3BD03C983ED0089595
:100610008F93F1E0E4EF8F918F93359B31D03C9A2B
:1006200034D0A4DF882321F4E9DF319709F0F3CF38
:1006300099270F90089508953D9A27D03C9825D08A
:100640003D9823D0359B1CD03C9A1FD08FDF089556
:1006500081E00895359B14D03C9A17D087DF089528
:1006600081E008953C983D984498459888279927BB
:10067000349B0895359B089581E0089581E00895A5
:10068000359BFECFA8940895089597E19A95F1F7C8
:1006900008950895E1E3F1E01382128288EE93E079
:1006A000A0E0B0E084839583A683B78324E031E0A3
:1006B0003183208325EC30E03587248724EC30E03B
:1006C0003787268720EC30E0318B208B21EC30E01F
:1006D000338B228B22EC30E0358B248B26EC30E000
:1006E000378B268B118E128E138E148EEEECF1E06A
:1006F0001382128284839583A683B78386E191E077
:10070000918380830895CF93DF93CDB7DEB7A19710
:100710000FB6F894DEBF0FBECDBF789484B582606B
:1007200084BD84B5816084BD85B5826085BD85B595
:10073000816085BD80916E00816080936E00109213
:10074000810080918100826080938100809181008E
:10075000816080938100809180008160809380001F
:100760008091B10084608093B1008091B00081607D
:100770008093B00080917A00846080937A008091A9
:100780007A00826080937A0080917A008160809301
:100790007A0080917A00806880937A001092C1007C
:1007A000E0914101F091420182E08083E0914101BA
:1007B000F09142011082E0913D01F0913E011082E2
:1007C000E0913F01F091400180E180831092490166
:1007D000E0914501F091460186E08083E09143017C
:1007E000F0914401808180618083E0914301F09128
:1007F0004401808188608083E0914301F09144014D
:10080000808180688083E0914301F0914401808180
:100810008F7D80831092FA011092FB011092FD01EE
:100820001092FC010E94320392E0392E222423947C
:100830002AE0822E912CA12CB12C1091FC0180ED8C
:10084000112351F00E941C03811102C082E001C0FB
:1008500080E08093FD0107C00E942A03811101C03E
:1008600012E01093FD012092FC016AE08EEC91E011
:100870000E94E8021092FD0181ED0E941C039091FC
:10088000FD01911104C0811102C03092FD0181E08F
:100890000E9488028093DA011092FA012092FB01F3
:1008A0001092FC010E94FE028EEC91E00E949E01DB
:1008B000282F30E040E050E019A28E010F5D1F4F5D
:1008C000CA01B901A50194010E94AF04605DF8015D
:1008D00062938F01211531054105510589F7309744
:1008E00061F001900020E9F73197AF01401B510BF7
:1008F000B80181E391E00E94840042E050E064E2AC
:1009000071E081E391E00E9484000E945F006B012E
:100910007C0188EE482E83E0582E612C712C0E94B9
:100920005F00DC01CB018C199D09AE09BF09883E2F
:100930009340A105B10598F3F1E04F1A5108610801
:10094000710828EEC20E23E0D21EE11CF11C4114F6
:1009500051046104710419F70E9486016ECFA1E26F
:100960001A2EAA1BBB1BFD010DC0AA1FBB1FEE1F29
:10097000FF1FA217B307E407F50720F0A21BB30B74
:10098000E40BF50B661F771F881F991F1A9469F7F0
:1009900060957095809590959B01AC01BD01CF014C
:1009A0000895EE0FFF1F0590F491E02D099481E06A
:0C09B00090E0F8940C94DC04F894FFCF65
:1009BC000000000017018400AE006401DF00BD00E0
:1009CC00D10000000000E802B901E1019001B00182
:0809DC009E0191010D0A0000CB
:00000001FF
